{
  "contractName": "BaseController",
  "abi": [
    {
      "inputs": [],
      "name": "managerAddr",
      "outputs": [
        {
          "internalType": "address",
          "name": "",
          "type": "address"
        }
      ],
      "stateMutability": "view",
      "type": "function"
    },
    {
      "inputs": [],
      "name": "ownerAddr",
      "outputs": [
        {
          "internalType": "address",
          "name": "",
          "type": "address"
        }
      ],
      "stateMutability": "view",
      "type": "function"
    },
    {
      "inputs": [
        {
          "internalType": "address",
          "name": "_newOwner",
          "type": "address"
        }
      ],
      "name": "transferOwnership",
      "outputs": [],
      "stateMutability": "nonpayable",
      "type": "function"
    },
    {
      "inputs": [
        {
          "internalType": "address",
          "name": "_managerAddr",
          "type": "address"
        }
      ],
      "name": "setManagerAddr",
      "outputs": [],
      "stateMutability": "nonpayable",
      "type": "function"
    }
  ],
  "bytecode": "0x608060405234801561001057600080fd5b50336000806101000a81548173ffffffffffffffffffffffffffffffffffffffff021916908373ffffffffffffffffffffffffffffffffffffffff160217905550610367806100606000396000f3fe608060405234801561001057600080fd5b506004361061004c5760003560e01c80632e3c9e99146100515780637978b2311461006f5780639c675eaa1461008b578063f2fde38b146100a9575b600080fd5b6100596100c5565b60405161006691906102cd565b60405180910390f35b61008960048036038101906100849190610295565b6100eb565b005b610093610187565b6040516100a091906102cd565b60405180910390f35b6100c360048036038101906100be9190610295565b6101ab565b005b600160009054906101000a900473ffffffffffffffffffffffffffffffffffffffff1681565b60008054906101000a900473ffffffffffffffffffffffffffffffffffffffff1673ffffffffffffffffffffffffffffffffffffffff163373ffffffffffffffffffffffffffffffffffffffff161461014357600080fd5b80600160006101000a81548173ffffffffffffffffffffffffffffffffffffffff021916908373ffffffffffffffffffffffffffffffffffffffff16021790555050565b60008054906101000a900473ffffffffffffffffffffffffffffffffffffffff1681565b60008054906101000a900473ffffffffffffffffffffffffffffffffffffffff1673ffffffffffffffffffffffffffffffffffffffff163373ffffffffffffffffffffffffffffffffffffffff161461020357600080fd5b600073ffffffffffffffffffffffffffffffffffffffff168173ffffffffffffffffffffffffffffffffffffffff16141561023d57600080fd5b806000806101000a81548173ffffffffffffffffffffffffffffffffffffffff021916908373ffffffffffffffffffffffffffffffffffffffff16021790555050565b60008135905061028f8161031a565b92915050565b6000602082840312156102a757600080fd5b60006102b584828501610280565b91505092915050565b6102c7816102e8565b82525050565b60006020820190506102e260008301846102be565b92915050565b60006102f3826102fa565b9050919050565b600073ffffffffffffffffffffffffffffffffffffffff82169050919050565b610323816102e8565b811461032e57600080fd5b5056fea2646970667358221220d8989b33c9ace06b64ef0fb9028cf62331c0b873287eabdd9d468dbc2a483d4064736f6c63430008000033",
  "immutableReferences": {},
  "source": "// SPDX-License-Identifier: MIT\npragma solidity ^0.8.0;\n\nimport './Owned.sol';\n\ncontract BaseController is Owned {\n  address public managerAddr;\n\n  function setManagerAddr(address _managerAddr) public onlyOwner {\n    managerAddr = _managerAddr; \n  }\n}",
  "sourcePath": "/home/shreyaslondhe/Desktop/Web Dev/crypto-twitter/crypto-twitter-backend/contracts/helpers/BaseController.sol",
  "compiler": {
    "name": "solc",
    "version": "0.8.0+commit.c7dfd78e.Emscripten.clang"
  },
  "schemaVersion": "3.4.3",
  "updatedAt": "2021-10-01T06:37:51.214Z",
  "devdoc": {
    "kind": "dev",
    "methods": {},
    "version": 1
  },
  "userdoc": {
    "kind": "user",
    "methods": {},
    "version": 1
  }
}