{
  "contractName": "ContractManager",
  "abi": [
    {
      "inputs": [],
      "name": "ownerAddr",
      "outputs": [
        {
          "internalType": "address",
          "name": "",
          "type": "address"
        }
      ],
      "stateMutability": "view",
      "type": "function",
      "constant": true
    },
    {
      "inputs": [
        {
          "internalType": "address",
          "name": "_newOwner",
          "type": "address"
        }
      ],
      "name": "transferOwnership",
      "outputs": [],
      "stateMutability": "nonpayable",
      "type": "function"
    },
    {
      "inputs": [
        {
          "internalType": "string",
          "name": "_name",
          "type": "string"
        },
        {
          "internalType": "address",
          "name": "_address",
          "type": "address"
        }
      ],
      "name": "setAddress",
      "outputs": [],
      "stateMutability": "nonpayable",
      "type": "function"
    },
    {
      "inputs": [
        {
          "internalType": "string",
          "name": "_name",
          "type": "string"
        }
      ],
      "name": "getAddress",
      "outputs": [
        {
          "internalType": "address",
          "name": "",
          "type": "address"
        }
      ],
      "stateMutability": "view",
      "type": "function",
      "constant": true
    },
    {
      "inputs": [
        {
          "internalType": "string",
          "name": "_name",
          "type": "string"
        }
      ],
      "name": "deleteAddress",
      "outputs": [],
      "stateMutability": "nonpayable",
      "type": "function"
    }
  ],
  "bytecode": "0x608060405234801561001057600080fd5b50336000806101000a81548173ffffffffffffffffffffffffffffffffffffffff021916908373ffffffffffffffffffffffffffffffffffffffff16021790555061071e806100606000396000f3fe608060405234801561001057600080fd5b50600436106100575760003560e01c80639b2ea4bd1461005c5780639c675eaa14610078578063bf40fac114610096578063c193b42a146100c6578063f2fde38b146100e2575b600080fd5b610076600480360381019061007191906104f1565b6100fe565b005b6100806101b7565b60405161008d919061059c565b60405180910390f35b6100b060048036038101906100ab91906104b0565b6101db565b6040516100bd919061059c565b60405180910390f35b6100e060048036038101906100db91906104b0565b61027c565b005b6100fc60048036038101906100f79190610487565b610335565b005b60008054906101000a900473ffffffffffffffffffffffffffffffffffffffff1673ffffffffffffffffffffffffffffffffffffffff163373ffffffffffffffffffffffffffffffffffffffff161461015657600080fd5b806001836040516101679190610585565b908152602001604051809103902060006101000a81548173ffffffffffffffffffffffffffffffffffffffff021916908373ffffffffffffffffffffffffffffffffffffffff1602179055505050565b60008054906101000a900473ffffffffffffffffffffffffffffffffffffffff1681565b60008060009054906101000a900473ffffffffffffffffffffffffffffffffffffffff1673ffffffffffffffffffffffffffffffffffffffff163373ffffffffffffffffffffffffffffffffffffffff161461023657600080fd5b6001826040516102469190610585565b908152602001604051809103902060009054906101000a900473ffffffffffffffffffffffffffffffffffffffff169050919050565b60008054906101000a900473ffffffffffffffffffffffffffffffffffffffff1673ffffffffffffffffffffffffffffffffffffffff163373ffffffffffffffffffffffffffffffffffffffff16146102d457600080fd5b60006001826040516102e69190610585565b908152602001604051809103902060006101000a81548173ffffffffffffffffffffffffffffffffffffffff021916908373ffffffffffffffffffffffffffffffffffffffff16021790555050565b60008054906101000a900473ffffffffffffffffffffffffffffffffffffffff1673ffffffffffffffffffffffffffffffffffffffff163373ffffffffffffffffffffffffffffffffffffffff161461038d57600080fd5b600073ffffffffffffffffffffffffffffffffffffffff168173ffffffffffffffffffffffffffffffffffffffff1614156103c757600080fd5b806000806101000a81548173ffffffffffffffffffffffffffffffffffffffff021916908373ffffffffffffffffffffffffffffffffffffffff16021790555050565b600061041d610418846105e8565b6105b7565b90508281526020810184848401111561043557600080fd5b610440848285610660565b509392505050565b600081359050610457816106d1565b92915050565b600082601f83011261046e57600080fd5b813561047e84826020860161040a565b91505092915050565b60006020828403121561049957600080fd5b60006104a784828501610448565b91505092915050565b6000602082840312156104c257600080fd5b600082013567ffffffffffffffff8111156104dc57600080fd5b6104e88482850161045d565b91505092915050565b6000806040838503121561050457600080fd5b600083013567ffffffffffffffff81111561051e57600080fd5b61052a8582860161045d565b925050602061053b85828601610448565b9150509250929050565b61054e8161062e565b82525050565b600061055f82610618565b6105698185610623565b935061057981856020860161066f565b80840191505092915050565b60006105918284610554565b915081905092915050565b60006020820190506105b16000830184610545565b92915050565b6000604051905081810181811067ffffffffffffffff821117156105de576105dd6106a2565b5b8060405250919050565b600067ffffffffffffffff821115610603576106026106a2565b5b601f19601f8301169050602081019050919050565b600081519050919050565b600081905092915050565b600061063982610640565b9050919050565b600073ffffffffffffffffffffffffffffffffffffffff82169050919050565b82818337600083830152505050565b60005b8381101561068d578082015181840152602081019050610672565b8381111561069c576000848401525b50505050565b7f4e487b7100000000000000000000000000000000000000000000000000000000600052604160045260246000fd5b6106da8161062e565b81146106e557600080fd5b5056fea2646970667358221220da02ce4eedfca831075aa3ef9dbfdba463ea3c0cd64f742ddede9dec18082f0564736f6c63430008000033",
  "immutableReferences": {},
  "source": "// SPDX-License-Identifier: MIT\npragma solidity ^0.8.0;\n\nimport './helpers/Owned.sol';\n\ncontract ContractManager is Owned {\n    mapping (string => address) addresses;\n\n    function setAddress(string memory _name, address _address) public onlyOwner {\n        addresses[_name] = _address;\n    }\n\n    function getAddress(string memory _name) public view onlyOwner returns (address) {\n        return addresses[_name];\n    }\n\n    function deleteAddress(string memory _name) public onlyOwner {\n        addresses[_name] = address(0);\n    }\n}",
  "sourcePath": "/home/shreyaslondhe/Desktop/Web Dev/crypto-twitter/crypto-twitter-backend/contracts/ContractManager.sol",
  "compiler": {
    "name": "solc",
    "version": "0.8.0+commit.c7dfd78e.Emscripten.clang"
  },
  "schemaVersion": "3.4.3",
  "updatedAt": "2021-10-01T06:37:54.582Z",
  "networkType": "ethereum",
  "devdoc": {
    "kind": "dev",
    "methods": {},
    "version": 1
  },
  "userdoc": {
    "kind": "user",
    "methods": {},
    "version": 1
  }
}