{
  "contractName": "Owned",
  "abi": [
    {
      "inputs": [],
      "stateMutability": "nonpayable",
      "type": "constructor"
    },
    {
      "inputs": [],
      "name": "ownerAddr",
      "outputs": [
        {
          "internalType": "address",
          "name": "",
          "type": "address"
        }
      ],
      "stateMutability": "view",
      "type": "function"
    },
    {
      "inputs": [
        {
          "internalType": "address",
          "name": "_newOwner",
          "type": "address"
        }
      ],
      "name": "transferOwnership",
      "outputs": [],
      "stateMutability": "nonpayable",
      "type": "function"
    }
  ],
  "bytecode": "0x608060405234801561001057600080fd5b50336000806101000a81548173ffffffffffffffffffffffffffffffffffffffff021916908373ffffffffffffffffffffffffffffffffffffffff160217905550610255806100606000396000f3fe608060405234801561001057600080fd5b50600436106100365760003560e01c80639c675eaa1461003b578063f2fde38b14610059575b600080fd5b610043610075565b60405161005091906101bb565b60405180910390f35b610073600480360381019061006e9190610183565b610099565b005b60008054906101000a900473ffffffffffffffffffffffffffffffffffffffff1681565b60008054906101000a900473ffffffffffffffffffffffffffffffffffffffff1673ffffffffffffffffffffffffffffffffffffffff163373ffffffffffffffffffffffffffffffffffffffff16146100f157600080fd5b600073ffffffffffffffffffffffffffffffffffffffff168173ffffffffffffffffffffffffffffffffffffffff16141561012b57600080fd5b806000806101000a81548173ffffffffffffffffffffffffffffffffffffffff021916908373ffffffffffffffffffffffffffffffffffffffff16021790555050565b60008135905061017d81610208565b92915050565b60006020828403121561019557600080fd5b60006101a38482850161016e565b91505092915050565b6101b5816101d6565b82525050565b60006020820190506101d060008301846101ac565b92915050565b60006101e1826101e8565b9050919050565b600073ffffffffffffffffffffffffffffffffffffffff82169050919050565b610211816101d6565b811461021c57600080fd5b5056fea2646970667358221220fc82913ea32db549660751230fa0830bebff65fb8e6c571217abcab1ea559d9364736f6c63430008000033",
  "immutableReferences": {},
  "source": "// SPDX-License-Identifier: MIT\npragma solidity ^0.8.0;\n\ncontract Owned {\n  address public ownerAddr;\n\n  constructor() {\n    ownerAddr = msg.sender;\n  }\n\n  modifier onlyOwner() {\n    require(msg.sender == ownerAddr);\n    _;\n  }\n\n  function transferOwnership(address _newOwner) public onlyOwner {\n    require(_newOwner != address(0));\n    ownerAddr = _newOwner;\n  }\n}",
  "sourcePath": "/home/shreyaslondhe/Desktop/Web Dev/crypto-twitter/crypto-twitter-backend/contracts/helpers/Owned.sol",
  "compiler": {
    "name": "solc",
    "version": "0.8.0+commit.c7dfd78e.Emscripten.clang"
  },
  "schemaVersion": "3.4.3",
  "updatedAt": "2021-09-30T13:20:33.576Z",
  "devdoc": {
    "kind": "dev",
    "methods": {},
    "version": 1
  },
  "userdoc": {
    "kind": "user",
    "methods": {},
    "version": 1
  }
}