{
  "contractName": "TweetStorage",
  "abi": [
    {
      "inputs": [],
      "name": "controllerAddr",
      "outputs": [
        {
          "internalType": "address",
          "name": "",
          "type": "address"
        }
      ],
      "stateMutability": "view",
      "type": "function"
    },
    {
      "inputs": [],
      "name": "ownerAddr",
      "outputs": [
        {
          "internalType": "address",
          "name": "",
          "type": "address"
        }
      ],
      "stateMutability": "view",
      "type": "function"
    },
    {
      "inputs": [
        {
          "internalType": "address",
          "name": "_controllerAddr",
          "type": "address"
        }
      ],
      "name": "setControllerAddr",
      "outputs": [],
      "stateMutability": "nonpayable",
      "type": "function"
    },
    {
      "inputs": [
        {
          "internalType": "address",
          "name": "_newOwner",
          "type": "address"
        }
      ],
      "name": "transferOwnership",
      "outputs": [],
      "stateMutability": "nonpayable",
      "type": "function"
    },
    {
      "inputs": [
        {
          "internalType": "uint256",
          "name": "",
          "type": "uint256"
        }
      ],
      "name": "tweets",
      "outputs": [
        {
          "internalType": "uint256",
          "name": "id",
          "type": "uint256"
        },
        {
          "internalType": "string",
          "name": "text",
          "type": "string"
        },
        {
          "internalType": "uint256",
          "name": "userId",
          "type": "uint256"
        },
        {
          "internalType": "uint256",
          "name": "postedAt",
          "type": "uint256"
        }
      ],
      "stateMutability": "view",
      "type": "function"
    },
    {
      "inputs": [
        {
          "internalType": "uint256",
          "name": "_userId",
          "type": "uint256"
        },
        {
          "internalType": "string",
          "name": "_text",
          "type": "string"
        }
      ],
      "name": "createTweet",
      "outputs": [
        {
          "internalType": "uint256",
          "name": "",
          "type": "uint256"
        }
      ],
      "stateMutability": "nonpayable",
      "type": "function"
    }
  ],
  "bytecode": "0x6080604052600060035534801561001557600080fd5b50336000806101000a81548173ffffffffffffffffffffffffffffffffffffffff021916908373ffffffffffffffffffffffffffffffffffffffff1602179055506109d2806100656000396000f3fe608060405234801561001057600080fd5b50600436106100625760003560e01c80636981fa7d146100675780637cc82f20146100835780639c675eaa146100b3578063e8d857b0146100d1578063ee255c5714610104578063f2fde38b14610122575b600080fd5b610081600480360381019061007c91906105db565b61013e565b005b61009d6004803603810190610098919061062d565b6101da565b6040516100aa91906106f3565b60405180910390f35b6100bb6102cf565b6040516100c891906106d8565b60405180910390f35b6100eb60048036038101906100e69190610604565b6102f3565b6040516100fb949392919061070e565b60405180910390f35b61010c6103ab565b60405161011991906106d8565b60405180910390f35b61013c600480360381019061013791906105db565b6103d1565b005b60008054906101000a900473ffffffffffffffffffffffffffffffffffffffff1673ffffffffffffffffffffffffffffffffffffffff163373ffffffffffffffffffffffffffffffffffffffff161461019657600080fd5b80600160006101000a81548173ffffffffffffffffffffffffffffffffffffffff021916908373ffffffffffffffffffffffffffffffffffffffff16021790555050565b6000600160009054906101000a900473ffffffffffffffffffffffffffffffffffffffff1673ffffffffffffffffffffffffffffffffffffffff163373ffffffffffffffffffffffffffffffffffffffff161461023657600080fd5b6003600081548092919061024990610887565b919050555060405180608001604052806003548152602001838152602001848152602001428152506002600060035481526020019081526020016000206000820151816000015560208201518160010190805190602001906102ac9291906104a6565b506040820151816002015560608201518160030155905050600354905092915050565b60008054906101000a900473ffffffffffffffffffffffffffffffffffffffff1681565b600260205280600052604060002060009150905080600001549080600101805461031c90610855565b80601f016020809104026020016040519081016040528092919081815260200182805461034890610855565b80156103955780601f1061036a57610100808354040283529160200191610395565b820191906000526020600020905b81548152906001019060200180831161037857829003601f168201915b5050505050908060020154908060030154905084565b600160009054906101000a900473ffffffffffffffffffffffffffffffffffffffff1681565b60008054906101000a900473ffffffffffffffffffffffffffffffffffffffff1673ffffffffffffffffffffffffffffffffffffffff163373ffffffffffffffffffffffffffffffffffffffff161461042957600080fd5b600073ffffffffffffffffffffffffffffffffffffffff168173ffffffffffffffffffffffffffffffffffffffff16141561046357600080fd5b806000806101000a81548173ffffffffffffffffffffffffffffffffffffffff021916908373ffffffffffffffffffffffffffffffffffffffff16021790555050565b8280546104b290610855565b90600052602060002090601f0160209004810192826104d4576000855561051b565b82601f106104ed57805160ff191683800117855561051b565b8280016001018555821561051b579182015b8281111561051a5782518255916020019190600101906104ff565b5b509050610528919061052c565b5090565b5b8082111561054557600081600090555060010161052d565b5090565b600061055c6105578461078b565b61075a565b90508281526020810184848401111561057457600080fd5b61057f848285610813565b509392505050565b6000813590506105968161096e565b92915050565b600082601f8301126105ad57600080fd5b81356105bd848260208601610549565b91505092915050565b6000813590506105d581610985565b92915050565b6000602082840312156105ed57600080fd5b60006105fb84828501610587565b91505092915050565b60006020828403121561061657600080fd5b6000610624848285016105c6565b91505092915050565b6000806040838503121561064057600080fd5b600061064e858286016105c6565b925050602083013567ffffffffffffffff81111561066b57600080fd5b6106778582860161059c565b9150509250929050565b61068a816107d7565b82525050565b600061069b826107bb565b6106a581856107c6565b93506106b5818560208601610822565b6106be8161095d565b840191505092915050565b6106d281610809565b82525050565b60006020820190506106ed6000830184610681565b92915050565b600060208201905061070860008301846106c9565b92915050565b600060808201905061072360008301876106c9565b81810360208301526107358186610690565b905061074460408301856106c9565b61075160608301846106c9565b95945050505050565b6000604051905081810181811067ffffffffffffffff821117156107815761078061092e565b5b8060405250919050565b600067ffffffffffffffff8211156107a6576107a561092e565b5b601f19601f8301169050602081019050919050565b600081519050919050565b600082825260208201905092915050565b60006107e2826107e9565b9050919050565b600073ffffffffffffffffffffffffffffffffffffffff82169050919050565b6000819050919050565b82818337600083830152505050565b60005b83811015610840578082015181840152602081019050610825565b8381111561084f576000848401525b50505050565b6000600282049050600182168061086d57607f821691505b60208210811415610881576108806108ff565b5b50919050565b600061089282610809565b91507fffffffffffffffffffffffffffffffffffffffffffffffffffffffffffffffff8214156108c5576108c46108d0565b5b600182019050919050565b7f4e487b7100000000000000000000000000000000000000000000000000000000600052601160045260246000fd5b7f4e487b7100000000000000000000000000000000000000000000000000000000600052602260045260246000fd5b7f4e487b7100000000000000000000000000000000000000000000000000000000600052604160045260246000fd5b6000601f19601f8301169050919050565b610977816107d7565b811461098257600080fd5b50565b61098e81610809565b811461099957600080fd5b5056fea2646970667358221220b1d88ab99faae9b7a10073056ed486bf30c249aeabb5ec2b3d90ca2b80352aaf64736f6c63430008000033",
  "immutableReferences": {},
  "source": "// SPDX-License-Identifier: MIT\npragma solidity ^0.8.0;\n\nimport '../helpers/BaseStorage.sol';\n\ncontract TweetStorage is BaseStorage {\n\n  struct Tweet {\n    uint id;\n    string text;\n    uint userId;\n    uint postedAt;\n  }\n\n  mapping(uint => Tweet) public tweets;\n\n  uint latestTweetId = 0;\n\n  function createTweet(uint _userId, string memory _text) public onlyController returns(uint) {\n    latestTweetId++;\n    tweets[latestTweetId] = Tweet(latestTweetId, _text, _userId, block.timestamp);\n    return latestTweetId;\n  }\n}",
  "sourcePath": "/home/shreyaslondhe/Desktop/Web Dev/crypto-twitter/crypto-twitter-backend/contracts/tweets/TweetStorage.sol",
  "compiler": {
    "name": "solc",
    "version": "0.8.0+commit.c7dfd78e.Emscripten.clang"
  },
  "schemaVersion": "3.4.3",
  "updatedAt": "2021-09-30T13:20:33.577Z",
  "devdoc": {
    "kind": "dev",
    "methods": {},
    "version": 1
  },
  "userdoc": {
    "kind": "user",
    "methods": {},
    "version": 1
  }
}