{
  "contractName": "UserController",
  "abi": [
    {
      "inputs": [],
      "name": "managerAddr",
      "outputs": [
        {
          "internalType": "address",
          "name": "",
          "type": "address"
        }
      ],
      "stateMutability": "view",
      "type": "function",
      "constant": true
    },
    {
      "inputs": [],
      "name": "ownerAddr",
      "outputs": [
        {
          "internalType": "address",
          "name": "",
          "type": "address"
        }
      ],
      "stateMutability": "view",
      "type": "function",
      "constant": true
    },
    {
      "inputs": [
        {
          "internalType": "address",
          "name": "_managerAddr",
          "type": "address"
        }
      ],
      "name": "setManagerAddr",
      "outputs": [],
      "stateMutability": "nonpayable",
      "type": "function"
    },
    {
      "inputs": [
        {
          "internalType": "address",
          "name": "_newOwner",
          "type": "address"
        }
      ],
      "name": "transferOwnership",
      "outputs": [],
      "stateMutability": "nonpayable",
      "type": "function"
    },
    {
      "inputs": [
        {
          "internalType": "bytes32",
          "name": "_username",
          "type": "bytes32"
        }
      ],
      "name": "createUser",
      "outputs": [
        {
          "internalType": "uint256",
          "name": "",
          "type": "uint256"
        }
      ],
      "stateMutability": "nonpayable",
      "type": "function"
    }
  ],
  "bytecode": "0x608060405234801561001057600080fd5b50336000806101000a81548173ffffffffffffffffffffffffffffffffffffffff021916908373ffffffffffffffffffffffffffffffffffffffff1602179055506106b0806100606000396000f3fe608060405234801561001057600080fd5b50600436106100575760003560e01c80632e3c9e991461005c5780637978b2311461007a5780639c675eaa14610096578063abf7bfd8146100b4578063f2fde38b146100e4575b600080fd5b610064610100565b604051610071919061056d565b60405180910390f35b610094600480360381019061008f919061045c565b610126565b005b61009e6101c2565b6040516100ab919061056d565b60405180910390f35b6100ce60048036038101906100c991906104ae565b6101e6565b6040516100db91906105c3565b60405180910390f35b6100fe60048036038101906100f9919061045c565b610333565b005b600160009054906101000a900473ffffffffffffffffffffffffffffffffffffffff1681565b60008054906101000a900473ffffffffffffffffffffffffffffffffffffffff1673ffffffffffffffffffffffffffffffffffffffff163373ffffffffffffffffffffffffffffffffffffffff161461017e57600080fd5b80600160006101000a81548173ffffffffffffffffffffffffffffffffffffffff021916908373ffffffffffffffffffffffffffffffffffffffff16021790555050565b60008054906101000a900473ffffffffffffffffffffffffffffffffffffffff1681565b600080600160009054906101000a900473ffffffffffffffffffffffffffffffffffffffff16905060008173ffffffffffffffffffffffffffffffffffffffff1663bf40fac16040518163ffffffff1660e01b8152600401610247906105a3565b60206040518083038186803b15801561025f57600080fd5b505afa158015610273573d6000803e3d6000fd5b505050506040513d601f19601f820116820180604052508101906102979190610485565b905060008190508073ffffffffffffffffffffffffffffffffffffffff1663abf7bfd8866040518263ffffffff1660e01b81526004016102d79190610588565b602060405180830381600087803b1580156102f157600080fd5b505af1158015610305573d6000803e3d6000fd5b505050506040513d601f19601f8201168201806040525081019061032991906104d7565b9350505050919050565b60008054906101000a900473ffffffffffffffffffffffffffffffffffffffff1673ffffffffffffffffffffffffffffffffffffffff163373ffffffffffffffffffffffffffffffffffffffff161461038b57600080fd5b600073ffffffffffffffffffffffffffffffffffffffff168173ffffffffffffffffffffffffffffffffffffffff1614156103c557600080fd5b806000806101000a81548173ffffffffffffffffffffffffffffffffffffffff021916908373ffffffffffffffffffffffffffffffffffffffff16021790555050565b60008135905061041781610635565b92915050565b60008151905061042c81610635565b92915050565b6000813590506104418161064c565b92915050565b60008151905061045681610663565b92915050565b60006020828403121561046e57600080fd5b600061047c84828501610408565b91505092915050565b60006020828403121561049757600080fd5b60006104a58482850161041d565b91505092915050565b6000602082840312156104c057600080fd5b60006104ce84828501610432565b91505092915050565b6000602082840312156104e957600080fd5b60006104f784828501610447565b91505092915050565b610509816105ef565b82525050565b61051881610601565b82525050565b600061052b600b836105de565b91507f5573657253746f726167650000000000000000000000000000000000000000006000830152602082019050919050565b6105678161062b565b82525050565b60006020820190506105826000830184610500565b92915050565b600060208201905061059d600083018461050f565b92915050565b600060208201905081810360008301526105bc8161051e565b9050919050565b60006020820190506105d8600083018461055e565b92915050565b600082825260208201905092915050565b60006105fa8261060b565b9050919050565b6000819050919050565b600073ffffffffffffffffffffffffffffffffffffffff82169050919050565b6000819050919050565b61063e816105ef565b811461064957600080fd5b50565b61065581610601565b811461066057600080fd5b50565b61066c8161062b565b811461067757600080fd5b5056fea2646970667358221220be6c5c3ed73acd11ed1d858801ea710b9253d4cee12976a5e37badfd86e58ec964736f6c63430008000033",
  "immutableReferences": {},
  "source": "// SPDX-License-Identifier: MIT\npragma solidity ^0.8.0;\n\nimport '../helpers/BaseController.sol';\nimport \"../ContractManager.sol\";\nimport \"./UserStorage.sol\";\n\ncontract UserController is BaseController {\n\n    function createUser(bytes32 _username) public returns(uint) {\n        ContractManager _manager = ContractManager(managerAddr);\n\n        address _userStorageAddr = _manager.getAddress(\"UserStorage\");\n        UserStorage _userStorage = UserStorage(_userStorageAddr);\n\n        return _userStorage.createUser(_username);\n    }\n}",
  "sourcePath": "/home/shreyaslondhe/Desktop/Web Dev/crypto-twitter/crypto-twitter-backend/contracts/users/UserController.sol",
  "compiler": {
    "name": "solc",
    "version": "0.8.0+commit.c7dfd78e.Emscripten.clang"
  },
  "schemaVersion": "3.4.3",
  "updatedAt": "2021-10-01T06:37:53.980Z",
  "networkType": "ethereum",
  "devdoc": {
    "kind": "dev",
    "methods": {},
    "version": 1
  },
  "userdoc": {
    "kind": "user",
    "methods": {},
    "version": 1
  }
}