{
  "contractName": "ContractManager",
  "abi": [
    {
      "inputs": [],
      "name": "ownerAddr",
      "outputs": [
        {
          "internalType": "address",
          "name": "",
          "type": "address"
        }
      ],
      "stateMutability": "view",
      "type": "function",
      "constant": true
    },
    {
      "inputs": [
        {
          "internalType": "address",
          "name": "_newOwner",
          "type": "address"
        }
      ],
      "name": "transferOwnership",
      "outputs": [],
      "stateMutability": "nonpayable",
      "type": "function"
    },
    {
      "inputs": [
        {
          "internalType": "string",
          "name": "_name",
          "type": "string"
        },
        {
          "internalType": "address",
          "name": "_address",
          "type": "address"
        }
      ],
      "name": "setAddress",
      "outputs": [],
      "stateMutability": "nonpayable",
      "type": "function"
    },
    {
      "inputs": [
        {
          "internalType": "string",
          "name": "_name",
          "type": "string"
        }
      ],
      "name": "getAddress",
      "outputs": [
        {
          "internalType": "address",
          "name": "",
          "type": "address"
        }
      ],
      "stateMutability": "view",
      "type": "function",
      "constant": true
    },
    {
      "inputs": [
        {
          "internalType": "string",
          "name": "_name",
          "type": "string"
        }
      ],
      "name": "deleteAddress",
      "outputs": [],
      "stateMutability": "nonpayable",
      "type": "function"
    }
  ],
  "bytecode": "0x608060405234801561001057600080fd5b50336000806101000a81548173ffffffffffffffffffffffffffffffffffffffff021916908373ffffffffffffffffffffffffffffffffffffffff1602179055506106c5806100606000396000f3fe608060405234801561001057600080fd5b50600436106100575760003560e01c80639b2ea4bd1461005c5780639c675eaa14610078578063bf40fac114610096578063c193b42a146100c6578063f2fde38b146100e2575b600080fd5b61007660048036038101906100719190610498565b6100fe565b005b6100806101b7565b60405161008d9190610543565b60405180910390f35b6100b060048036038101906100ab9190610457565b6101db565b6040516100bd9190610543565b60405180910390f35b6100e060048036038101906100db9190610457565b610223565b005b6100fc60048036038101906100f7919061042e565b6102dc565b005b60008054906101000a900473ffffffffffffffffffffffffffffffffffffffff1673ffffffffffffffffffffffffffffffffffffffff163373ffffffffffffffffffffffffffffffffffffffff161461015657600080fd5b80600183604051610167919061052c565b908152602001604051809103902060006101000a81548173ffffffffffffffffffffffffffffffffffffffff021916908373ffffffffffffffffffffffffffffffffffffffff1602179055505050565b60008054906101000a900473ffffffffffffffffffffffffffffffffffffffff1681565b60006001826040516101ed919061052c565b908152602001604051809103902060009054906101000a900473ffffffffffffffffffffffffffffffffffffffff169050919050565b60008054906101000a900473ffffffffffffffffffffffffffffffffffffffff1673ffffffffffffffffffffffffffffffffffffffff163373ffffffffffffffffffffffffffffffffffffffff161461027b57600080fd5b600060018260405161028d919061052c565b908152602001604051809103902060006101000a81548173ffffffffffffffffffffffffffffffffffffffff021916908373ffffffffffffffffffffffffffffffffffffffff16021790555050565b60008054906101000a900473ffffffffffffffffffffffffffffffffffffffff1673ffffffffffffffffffffffffffffffffffffffff163373ffffffffffffffffffffffffffffffffffffffff161461033457600080fd5b600073ffffffffffffffffffffffffffffffffffffffff168173ffffffffffffffffffffffffffffffffffffffff16141561036e57600080fd5b806000806101000a81548173ffffffffffffffffffffffffffffffffffffffff021916908373ffffffffffffffffffffffffffffffffffffffff16021790555050565b60006103c46103bf8461058f565b61055e565b9050828152602081018484840111156103dc57600080fd5b6103e7848285610607565b509392505050565b6000813590506103fe81610678565b92915050565b600082601f83011261041557600080fd5b81356104258482602086016103b1565b91505092915050565b60006020828403121561044057600080fd5b600061044e848285016103ef565b91505092915050565b60006020828403121561046957600080fd5b600082013567ffffffffffffffff81111561048357600080fd5b61048f84828501610404565b91505092915050565b600080604083850312156104ab57600080fd5b600083013567ffffffffffffffff8111156104c557600080fd5b6104d185828601610404565b92505060206104e2858286016103ef565b9150509250929050565b6104f5816105d5565b82525050565b6000610506826105bf565b61051081856105ca565b9350610520818560208601610616565b80840191505092915050565b600061053882846104fb565b915081905092915050565b600060208201905061055860008301846104ec565b92915050565b6000604051905081810181811067ffffffffffffffff8211171561058557610584610649565b5b8060405250919050565b600067ffffffffffffffff8211156105aa576105a9610649565b5b601f19601f8301169050602081019050919050565b600081519050919050565b600081905092915050565b60006105e0826105e7565b9050919050565b600073ffffffffffffffffffffffffffffffffffffffff82169050919050565b82818337600083830152505050565b60005b83811015610634578082015181840152602081019050610619565b83811115610643576000848401525b50505050565b7f4e487b7100000000000000000000000000000000000000000000000000000000600052604160045260246000fd5b610681816105d5565b811461068c57600080fd5b5056fea264697066735822122097d1564dc8d6aa6dad4728736f9dcaa595e5e6dac5c3acaf65a4a4df38efd46164736f6c63430008000033",
  "immutableReferences": {},
  "source": "// SPDX-License-Identifier: MIT\npragma solidity ^0.8.0;\n\nimport './helpers/Owned.sol';\n\ncontract ContractManager is Owned {\n    mapping (string => address) addresses;\n\n    function setAddress(string memory _name, address _address) public onlyOwner {\n        addresses[_name] = _address;\n    }\n\n    function getAddress(string memory _name) public view returns (address) {\n        return addresses[_name];\n    }\n\n    function deleteAddress(string memory _name) public onlyOwner {\n        addresses[_name] = address(0);\n    }\n}",
  "sourcePath": "/home/shreyaslondhe/Desktop/Web Dev/crypto-twitter/crypto-twitter-backend/contracts/ContractManager.sol",
  "compiler": {
    "name": "solc",
    "version": "0.8.0+commit.c7dfd78e.Emscripten.clang"
  },
  "schemaVersion": "3.4.3",
  "updatedAt": "2021-10-01T12:16:16.404Z",
  "networkType": "ethereum",
  "devdoc": {
    "kind": "dev",
    "methods": {},
    "version": 1
  },
  "userdoc": {
    "kind": "user",
    "methods": {},
    "version": 1
  }
}