{
  "contractName": "UserController",
  "abi": [
    {
      "inputs": [],
      "name": "ownerAddr",
      "outputs": [
        {
          "internalType": "address",
          "name": "",
          "type": "address"
        }
      ],
      "stateMutability": "view",
      "type": "function",
      "constant": true
    },
    {
      "inputs": [
        {
          "internalType": "address",
          "name": "_managerAddr",
          "type": "address"
        }
      ],
      "name": "setManagerAddr",
      "outputs": [],
      "stateMutability": "nonpayable",
      "type": "function"
    },
    {
      "inputs": [
        {
          "internalType": "address",
          "name": "_newOwner",
          "type": "address"
        }
      ],
      "name": "transferOwnership",
      "outputs": [],
      "stateMutability": "nonpayable",
      "type": "function"
    },
    {
      "inputs": [
        {
          "internalType": "bytes32",
          "name": "_username",
          "type": "bytes32"
        }
      ],
      "name": "createUser",
      "outputs": [
        {
          "internalType": "uint256",
          "name": "",
          "type": "uint256"
        }
      ],
      "stateMutability": "nonpayable",
      "type": "function"
    }
  ],
  "bytecode": "0x608060405234801561001057600080fd5b50336000806101000a81548173ffffffffffffffffffffffffffffffffffffffff021916908373ffffffffffffffffffffffffffffffffffffffff160217905550610661806100606000396000f3fe608060405234801561001057600080fd5b506004361061004c5760003560e01c80637978b231146100515780639c675eaa1461006d578063abf7bfd81461008b578063f2fde38b146100bb575b600080fd5b61006b6004803603810190610066919061040d565b6100d7565b005b610075610173565b604051610082919061051e565b60405180910390f35b6100a560048036038101906100a0919061045f565b610197565b6040516100b29190610574565b60405180910390f35b6100d560048036038101906100d0919061040d565b6102e4565b005b60008054906101000a900473ffffffffffffffffffffffffffffffffffffffff1673ffffffffffffffffffffffffffffffffffffffff163373ffffffffffffffffffffffffffffffffffffffff161461012f57600080fd5b80600160006101000a81548173ffffffffffffffffffffffffffffffffffffffff021916908373ffffffffffffffffffffffffffffffffffffffff16021790555050565b60008054906101000a900473ffffffffffffffffffffffffffffffffffffffff1681565b600080600160009054906101000a900473ffffffffffffffffffffffffffffffffffffffff16905060008173ffffffffffffffffffffffffffffffffffffffff1663bf40fac16040518163ffffffff1660e01b81526004016101f890610554565b60206040518083038186803b15801561021057600080fd5b505afa158015610224573d6000803e3d6000fd5b505050506040513d601f19601f820116820180604052508101906102489190610436565b905060008190508073ffffffffffffffffffffffffffffffffffffffff1663abf7bfd8866040518263ffffffff1660e01b81526004016102889190610539565b602060405180830381600087803b1580156102a257600080fd5b505af11580156102b6573d6000803e3d6000fd5b505050506040513d601f19601f820116820180604052508101906102da9190610488565b9350505050919050565b60008054906101000a900473ffffffffffffffffffffffffffffffffffffffff1673ffffffffffffffffffffffffffffffffffffffff163373ffffffffffffffffffffffffffffffffffffffff161461033c57600080fd5b600073ffffffffffffffffffffffffffffffffffffffff168173ffffffffffffffffffffffffffffffffffffffff16141561037657600080fd5b806000806101000a81548173ffffffffffffffffffffffffffffffffffffffff021916908373ffffffffffffffffffffffffffffffffffffffff16021790555050565b6000813590506103c8816105e6565b92915050565b6000815190506103dd816105e6565b92915050565b6000813590506103f2816105fd565b92915050565b60008151905061040781610614565b92915050565b60006020828403121561041f57600080fd5b600061042d848285016103b9565b91505092915050565b60006020828403121561044857600080fd5b6000610456848285016103ce565b91505092915050565b60006020828403121561047157600080fd5b600061047f848285016103e3565b91505092915050565b60006020828403121561049a57600080fd5b60006104a8848285016103f8565b91505092915050565b6104ba816105a0565b82525050565b6104c9816105b2565b82525050565b60006104dc600b8361058f565b91507f5573657253746f726167650000000000000000000000000000000000000000006000830152602082019050919050565b610518816105dc565b82525050565b600060208201905061053360008301846104b1565b92915050565b600060208201905061054e60008301846104c0565b92915050565b6000602082019050818103600083015261056d816104cf565b9050919050565b6000602082019050610589600083018461050f565b92915050565b600082825260208201905092915050565b60006105ab826105bc565b9050919050565b6000819050919050565b600073ffffffffffffffffffffffffffffffffffffffff82169050919050565b6000819050919050565b6105ef816105a0565b81146105fa57600080fd5b50565b610606816105b2565b811461061157600080fd5b50565b61061d816105dc565b811461062857600080fd5b5056fea26469706673582212205a0031f820e8781e25448fa3492e39b88da11588727dc2d01a42efaf9202cb5f64736f6c63430008000033",
  "immutableReferences": {},
  "source": "// SPDX-License-Identifier: MIT\npragma solidity ^0.8.0;\n\nimport '../helpers/BaseController.sol';\nimport \"../ContractManager.sol\";\nimport \"./UserStorage.sol\";\n\ncontract UserController is BaseController {\n\n    function createUser(bytes32 _username) public returns(uint) {\n        ContractManager _manager = ContractManager(managerAddr);\n\n        address _userStorageAddr = _manager.getAddress(\"UserStorage\");\n        UserStorage _userStorage = UserStorage(_userStorageAddr);\n\n        return _userStorage.createUser(_username);\n    }\n}",
  "sourcePath": "/home/shreyaslondhe/Desktop/Web Dev/crypto-twitter/crypto-twitter-backend/contracts/users/UserController.sol",
  "compiler": {
    "name": "solc",
    "version": "0.8.0+commit.c7dfd78e.Emscripten.clang"
  },
  "schemaVersion": "3.4.3",
  "updatedAt": "2021-10-01T12:16:15.811Z",
  "networkType": "ethereum",
  "devdoc": {
    "kind": "dev",
    "methods": {},
    "version": 1
  },
  "userdoc": {
    "kind": "user",
    "methods": {},
    "version": 1
  }
}